:100000000C941D030C943A030C943A030C943A0399
:100010000C943A030C943A030C943A030C943A036C
:100020000C943A030C943A030C94A22B0C94742C69
:100030000C94E1210C943A030C943A030C943A0387
:100040000C943A030C943A030C943A030C943A033C
:100050000C943A030C9449220C943A030C943A03FE
:100060000C943A030C943A030C943A030C943A031C
:100070000C943A030C943A030C943A030C943A030C
:100080000C943A030C943A030C943A030C943A03FC
:100090000C943A030C943A030C943A030C943A03EC
:1000A0000C943A030C943A030C943A03920395038C
:1000B00098039B039E03A103A40359075B076607EC
:1000C0005D075F0761076307650768076A076C07D5
:1000D00077076E07700772077407760779077F172F
:1000E0007F17B117B117E81708187119CF194A18F7
:1000F000CF19F718F7186819CF19CF19C9190419AA
:100100000419041904190419041904190419041907
:1001100004190419041904190419041904191519E6
:100120002219291930193A195A1A5A1A6C1A6C1AC2
:10013000631A6C1A6C1A6C1A5A1A5A1A681A6C1AC0
:100140006C1A681AE12C082DFA2D082DFA2D542D61
:10015000772DFA2DCD2DDC2D07634236B79BD8A71E
:100160001A39685618AEBAAB558C1D3CB7CC5763DC
:10017000BD6DEDFD753EF6177231BF000000803F8A
:1001800005A84CCDB2D44EB93836A9020C50B9915D
:100190008688083CA6AAAA2ABE000000803F290043
:1001A0002B003900E100E00000003A0014000400D8
:1001B0001D00E3004E003B001A0016001B004A0021
:1001C00028003C000800070006004D002C003D0000
:1001D000150009001900E2004B003E0017000A005C
:1001E0000500000049003F002F000000350000001E
:1001F0000153400030000000310000005000410079
:100200001C000B00110000004F00420018000D0000
:100210001000E600520043000C000E0036002D00D6
:100220002C00440012000F0037002E00280045006B
:10023000130033003800650051004C002A003400E0
:10024000E500E400000000000000000000000000E5
:10025000000000000000000000000000000000009E
:10026000000000000000000000000000000000008E
:10027000000000000000000000000000000000007E
:10028000000000000000000000000000000000006E
:10029000000000000000000001000000000000005D
:1002A000000000000000000000000000000000004E
:1002B000000000000000000000000000000000003E
:1002C000000000000000000000000000000000002E
:1002D000000000000000000000000000000000001E
:1002E000000000000000000000000000000000000E
:1002F00000000000000000000000000000000000FE
:1003000000000000000000000000000000000000ED
:1003100000000000000000000000000000000000DD
:1003200000000000000000000000000000000000CD
:1003300000000000000000000000000000000000BD
:1003400001000000000000000000000000000000AC
:10035000000000000000000000000000000000009D
:10036000000000000000000000000000000000008D
:10037000000000000000000000000000000000007D
:10038000000000000000000000000000000000006D
:1003900000000000000000047F3F1F64321464323C
:1003A00014783C1E1E140A056801F000B4007800A1
:1003B0005A000000000000010101010101010101DA
:1003C0000202020202020202020303030303030306
:1003D00003040404040404050505050506060606D1
:1003E0000607070707080808080909090A0A0A0A88
:1003F0000B0B0B0C0C0C0D0D0D0E0E0F0F0F101028
:1004000011111112121313141415151616171718AB
:100410001819191A1A1B1C1C1D1D1E1F1F20202114
:1004200022222324252526272728292A2B2B2C2D59
:100430002E2F2F30313233343536363738393A3B78
:100440003C3D3E3F4041424344464748494A4B4C6D
:100450004D4F50515253555657585A5B5C5E5F6032
:100460006263646667696A6C6D6E707173747678C6
:10047000797B7C7E8081838486888A8B8D8F919224
:100480009496989A9B9D9FA1A3A5A7A9ABADAFB148
:10049000B3B5B7B9BBBDBFC1C4C6C8CACCCFD1D331
:1004A000D6D8DADCDFE1E4E6E8EBEDF0F2F5F7FAD6
:1004B000FCFF0403300000001603450072006700D3
:1004C0006F0044006F007800200045005A000000D3
:1004D00016034500720067006F0044006F0078004B
:1004E000200045005A0000000403090409023B00F3
:1004F000020100A0FA090400000103010100092122
:10050000110100012240000705810308000A0904C7
:100510000100010300000009211101000122C000B7
:100520000705820320000A1201100100000008EDF7
:10053000FE071301000102030105010902A1018563
:10054000020901A1000509190129051500250195D8
:1005500005750181029501750381010501093009C5
:10056000311581257F950275088106093815812589
:100570007F950175088106050C0A38021581257FD3
:10058000950175088106C0C005010980A101850398
:100590001601002603001A81002A830075109501B8
:1005A0008100C0050C0901A1018504160100269CEB
:1005B000021A01002A9C02751095018100C00501F4
:1005C0000906A1018505050719E029E715002501A0
:1005D0009508750181020508190129059505750120
:1005E00091029501750391010507190029EF150086
:1005F000250195F075018102C005010906A10105DB
:100600000719E029E7150025019508750181029574
:1006100001750881010508190129059505750191E4
:10062000029501750391010507190029FF150026A0
:10063000FF00950675088100C00011241FBECFEF92
:10064000DAE0DEBFCDBF11E0A0E0B1E0E8EFF3E615
:1006500002C005900D92A43DB107D9F723E0A4EDA7
:10066000B1E001C01D92AA3BB207E1F70E94C42885
:100670000C94FA310C94000080B38C7080BB81B371
:10068000836F81BB089584B1807F84B985B1807FF9
:1006900085B98AB1837F8AB98BB1837F8BB93E9844
:1006A00046980895CF93E82F873090F58091000108
:1006B00090910101892B09F049C0CE2F64E670E0CA
:1006C00080E40E94D3049093010180930001892B60
:1006D000D1F464E670E082E10E942A059093010162
:1006E00080930001892B79F481E090E001C0880FAC
:1006F000CA95EAF764E670E080950E942A05909317
:1007000001018093000184E690E0CF910C947F0575
:1007100090E0FC013797E730F105C0F4EA5AFF4F4B
:100720000C949F31209A289811C0219A29980EC0C4
:10073000229A2A980BC0239A2B9808C0529A5A984A
:1007400005C0539A5B9802C03E9A4698CF9108958F
:10075000089508950C94A903CF93DF930E94110686
:1007600090E090930101809300010E9443030E9456
:100770003C03A9E2B2E025ED31E0E7E3F2E04EE030
:100780004E0F11921D9280E090E0E901C80FD91F31
:100790001882019686309105C1F72A5F3F4F4E13AC
:1007A000F0CFDF91CF910C9492060E94110690E059
:1007B00090930101809300010E9443030E943C0337
:1007C000E7E3F2E08EE08E0F11928E13FDCF0895D5
:1007D000CF93DF93E62FF0E0E75DFD4F40814827A0
:1007E000808386E0689FF0011124EB52FE4F20E0E9
:1007F00030E080E061E070E050E0AAE0B22F90814C
:10080000992319F09150908307C0EB01022E01C08B
:10081000CC0F0A94EAF78C2BEA0102C0D595C79554
:10082000BA95E2F7C0FDA0832F5F3F4F3196263087
:10083000310521F7DF91CF910895CF93DF93D82F22
:10084000873008F040C08091000190910101892B10
:1008500009F042C064E670E080E40E94D304909303
:10086000010180930001892B11F0C0E027C064E6EC
:1008700070E083E10E942A059093010180930001BA
:10088000892B99F764E670E081E40E94D304909389
:10089000010180930001892B41F784E690E00E94DA
:1008A0005A0597FF05C09093010180930001DDCFA9
:1008B000C82FC095109201011092000184E690E0CB
:1008C0000E947F050AC09FB1CFB1C07FC695C69573
:1008D0009370C92BC09501C0C0E06D2F8C2F0E9472
:1008E000E803282F2095ED2FF0E0E95CFD4F908183
:1008F00092238C23892BDF91CF910895EF92FF9261
:100900000F931F93CF93DF9380910001909101018A
:10091000892B91F08091D4018F5F8093D401811154
:100920000BC00E94110690E090930101809300019A
:10093000892B11F40E94A30587E3E82E82E0F82EAC
:100940000EE312E0C0E08C2F0E945203D7E0DC0FD0
:100950008D2F0E9452038C2F0E941D04F70181935A
:100960007F018D2F0E941D04F80181938F010E9449
:100970004303CF5FC73039F70E949C0681E0DF91C7
:10098000CF911F910F91FF90EF900895E82FF0E025
:10099000E95CFD4F8081089508951092B9008CE0C4
:1009A0008093B8000895EF92FF920F931F93CF9317
:1009B000DF93182FEB011092BC0084EA8093BC00F7
:1009C0000E9413227C019091BC0097FD0EC0CF3F86
:1009D0008FEFD807C1F30E9413228E199F098C173D
:1009E0009D0788F38EEF9FEF2EC09091B900987FFE
:1009F000983041F09091B900987F903119F08FEFC5
:100A00009FEF21C01093BB0084E88093BC000E943C
:100A100013228C019091BC0097FD0CC0CF3F8FEF4B
:100A2000D807C1F30E941322801B910B8C179D07DE
:100A300088F3D8CF8091B900887F883111F0803455
:100A4000F1F680E090E0DF91CF911F910F91FF9040
:100A5000EF9008950F931F93CF93DF93EB01809353
:100A6000BB0084E88093BC000E9413228C0190910B
:100A7000BC0097FD0EC0CF3F8FEFD807C1F30E9497
:100A80001322801B910B8C179D0788F38EEF9FEF2D
:100A90000CC02091B900287F81E090E0283211F449
:100AA00080E090E0919581959109DF91CF911F9120
:100AB0000F9108950F931F93CF93DF93EC0184E878
:100AC0008093BC000E9413228C019091BC0097FD82
:100AD0000EC0CF3F8FEFD807C1F30E941322801BB7
:100AE000910B8C179D0788F38EEF9FEF03C08091C9
:100AF000BB0090E0DF91CF911F910F9108950F936C
:100B00001F93CF93DF93EC0184E98093BC000E9494
:100B100013228C019091BC0094FF0EC0CF3F8FEF49
:100B2000D807C1F30E941322801B910B8C179D07DD
:100B300088F38EEF9FEF02C080E090E0DF91CF91CD
:100B40001F910F91089556985E9825982D98269894
:100B50002E9827982F988FEF90E09093890080939C
:100B6000880090938B0080938A0090938D008093EF
:100B70008C00259A2D9A2FEF80E792E0215080403B
:100B80009040E1F700C00000269A2E9A2FEF80E7F0
:100B900092E0215080409040E1F700C00000279A89
:100BA0002F9A2FEF80E792E0215080409040E1F7AC
:100BB00000C0000025982D982FEF80E792E021508B
:100BC00080409040E1F700C0000026982E982FEF5B
:100BD00080E792E0215080409040E1F700C00000A3
:100BE00027982F9856985E9825982D9826982E9895
:100BF00027982F98089589EA8093800089E0809350
:100C0000810024982C983F988AB18F7C8AB96E987D
:100C1000479A8BB180638BB9769A0E94A3050C9496
:100C2000A80380E290E090930101809300018091FD
:100C3000450281110EC00E94CD0481E080934502DF
:100C40002FEF83ED90E3215080409040E1F700C00A
:100C5000000064E670E080E40E94D30490930101F8
:100C600080930001892B09F050C064E670E080E0B9
:100C70000E942A059093010180930001892B09F0BD
:100C800044C064E670E080E00E942A059093010170
:100C900080930001892BC9F564E670E08FE30E9420
:100CA0002A059093010180930001892B71F584E658
:100CB00090E00E947F0564E670E080E40E94D30427
:100CC0009093010180930001892BF9F464E670E0B0
:100CD0008CE00E942A059093010180930001892BEA
:100CE000A1F464E670E080E00E942A05909301017F
:100CF00080930001892B49F464E670E08FE30E9441
:100D00002A05909301018093000184E690E00E94FF
:100D10007F0580910001089581E0089581E00895A4
:100D20000C948E060E949120811102C00E94FF2027
:100D30000E94F10B0C94FB050C94AA03282F2F7032
:100D400041F0822F90E02A3010F44D9608950697D6
:100D5000089587E290E0089508950C94AC060C94F1
:100D6000AD0608950E944A1A0E94B1062FEF84E34F
:100D70009CE0215080409040E1F700C000000C94BE
:100D80006F22FF920F931F93CF93DF938C01FC018F
:100D9000C081D18180918F02811113C0828188230B
:100DA00049F0CE010E94811FF82E682FCE010E94CB
:100DB000241F04C0CE010E94541FF82EBE018F2DA7
:100DC00004C0CE010E94811FBE010E945F09EC0198
:100DD000B8010E949006882309F466C2B801CE01CA
:100DE0000E946C0C882309F45FC2CC3CFCE5DF0751
:100DF00041F4F8018281882309F456C20E94630DF0
:100E000053C2CD3C8CE5D80708F01EC1C43C9CE51C
:100E1000D90761F4F8018281882309F445C20E9450
:100E200052208272E1F40E948D0F3EC2C53CECE577
:100E3000DE0708F0C7C0C531FCE5DF0798F0C23C0B
:100E4000FCE5DF0709F48CC008F492C0F801828148
:100E5000882309F429C20E945220827221F70E943D
:100E60007F0F22C2C2308CE5D80708F452C0F801C7
:100E70008281882309F459C00E949120811102C007
:100E80000E94FF200E94A42090E09093AC038093E6
:100E9000AB03FE01E350FC45E231F10530F4E35AC7
:100EA000FF4F8091AB030C949F318091AB03816025
:100EB00027C0826025C0846023C0806121C0806219
:100EC0001FC080641DC080681BC08460886018C01B
:100ED0008E7F16C08D7F14C08B7F12C08F7E10C096
:100EE0008F7D0EC08F7B0CC08F770AC08B7F877F72
:100EF00007C087FB222720F991E0922790FB87F912
:100F00008093AB038091AB030E94A8200E944A1AF1
:100F1000CBC1C1159CE5D90781F0C130DC45A9F0F2
:100F200081E080934B0280934C02C801DF91CF9106
:100F30001F910F91FF900C948C06F80182818823F9
:100F400009F4B2C10E94B206AFC1F80182818823C0
:100F500009F4AAC180912E03816080932E03A4C15D
:100F6000F8018281882309F49FC10E94E80F9CC187
:100F7000C631DC45A9F60E945220282FF801828153
:100F800040910F0150911001882379F02A7A91E065
:100F900009F490E090934602911102C069E201C009
:100FA00065E3CA010E9466210AC080914602811150
:100FB00002C069E201C065E3CA010E9471210E947A
:100FC0001F2072C1F8018281C83CFCE5DF0731F4C3
:100FD000882309F469C10E94E60E66C1C93C9CE5FC
:100FE000D907C8F4C63CECE5DE0731F4882309F4E0
:100FF0005BC10E94B80E58C1C73CDC4530F4882361
:1010000009F452C10E94940E4FC1882309F44CC1C7
:101010000E94CF0E49C1CA3C9CE5D90731F4882310
:1010200009F442C10E94260F3FC1CB3CDC4530F49D
:10103000882309F439C10E94060F36C1882309F4B8
:1010400033C10E944E0D30C1C43DFCE5DF0791F471
:10105000F8018281882309F427C10E94450D893156
:1010600028F00E94450D823208F4F9CE89E10E94F1
:10107000900F1AC1C53D8CE5D80708F068C0F8018B
:101080008281C03DFCE5DF0771F4882309F40CC1BF
:101090000E94450D893028F00E94450D8E3008F4DD
:1010A000DECE89E0E4CFC13D9CE5D90740F5CE3CDA
:1010B000ECE5DE0771F4882309F4F6C00E94450DC3
:1010C000823028F00E94450D853008F4C8CE82E0B9
:1010D000CECFCF3CDC4528F4882309F4E5C081E07D
:1010E000C6CF882309F4E0C00E94450D863028F061
:1010F0000E94450D883008F4B2CE86E0B8CFC23DDC
:101100009CE5D90771F4882309F4CEC00E94450DEF
:10111000853128F00E94450D873108F4A0CE85E185
:10112000A6CFC33DDC4570F4882309F4BDC00E94FE
:10113000450D8F3028F00E94450D843108F48FCE84
:101140008FE095CF882309F4AFC088E190CFC83DE8
:10115000FCE5DF0759F5F8018281882361F01092E0
:101160004C020E94132290934A028093490280E22B
:101170000E943D1799C080914C02882321F080E2A3
:101180000E94441791C08091490290914A020E94A6
:101190001F22883C910598F780E20E94441788E25C
:1011A0000E94941588E20E94CD167EC0C93D8CE550
:1011B000D80708F058C0F8018281C63DFCE5DF077A
:1011C00051F5882351F010924B020E941322909304
:1011D00048028093470282E0CBCF0E94522085FFD5
:1011E00005C081E080934B0280934C0280914B02BA
:1011F00081110FC080914702909148020E941F22E6
:10120000883C910530F486E20E94941586E20E94A3
:10121000CD1682E0B5CFC73DDC4528F4882309F41C
:1012200043C083E224CF81119ACF0E94522081FFD4
:1012300005C081E080934B0280934C0280914C0268
:1012400081119DCF8091490290914A020E941F22F4
:10125000883C910508F093CF87E20E94941587E2BD
:101260000E94CD168CCFCC3DECE5DE0741F4F801B1
:1012700082818823C9F082E00E94652915C0CD3D96
:10128000FCE5DF0739F4F8018281882369F00E94C8
:10129000FF200AC0CB3DDC4509F042CEF801828137
:1012A000882311F080E0E8CF80E0DF91CF911F919B
:1012B0000F91FF90089580E090E00895089596E0E2
:1012C000799FF001112494E5899FE00DF11D11240F
:1012D000E60FF11DEE0FFF1FE256FE4F8591949130
:1012E0000895880F991FFC01EA56FC4F859194914F
:1012F0000895CF93DF930E945F090E943A0BEC019F
:10130000811520E59207F0F5811530E4930708F088
:1013100028C1883E910500F5803E910508F0A6C1E0
:10132000883A910570F4853A910508F0A3C08130A0
:10133000910509F49BC108F44CC1049708F096C1CB
:1013400048C18F3B910508F4A0C0803C910508F48A
:1013500040C1805C9109F8C08115904258F4C115D4
:1013600081E0D80708F082C1C03FD10508F431C13F
:10137000D0657CC1C11590E3D90708F0E8C0CE0163
:101380009F70E2C0811525E5920708F043C08115E2
:1013900034E5930708F0FCC0811542E5940708F591
:1013A000C11581E5D80708F0DFC08C2F837021E0DC
:1013B00030E002C0220F331F8A95E2F73C68CE016D
:1013C00054E0969587955A95E1F78370382BCF7046
:1013D000C695C69540E2C49FE0011124C22BD32BD1
:1013E00045C1282F2695269583709927C115D34589
:1013F00008F0BFC040E2249F90011124C1E0D0E07A
:1014000002C0CC0FDD1F8A95E2F72C2B3D2BE901A2
:10141000DC682CC181154AE59407A0F4C11589E563
:10142000D80708F0C4C0C11596E5D90708F4B5C0BF
:10143000C11528E5D20708F4CCC0DC2FCC27C06F3B
:10144000D06A14C181153BE5930708F4C2C0811529
:101450004CE5940708F4BAC090568115904208F004
:10146000B8C08D2F8F710E94B70BDD27D0628F71AE
:10147000D82BFCC0853A910509F4AEC0863A910597
:1014800009F0ADC0C2E8D0E4F1C0883A910509F492
:10149000A9C0893A910509F4A8C08A3A910509F4CE
:1014A000A7C08B3A910509F4A6C08C3A910509F4BE
:1014B000A5C08B3B910509F4A4C08C3B910509F4B0
:1014C000A3C08D3A910509F4A2C0803B910509F4AF
:1014D000A1C08E3A910509F4A0C08F3A910509F494
:1014E0009FC0813B910509F49EC0823B910509F4A0
:1014F0009DC0833B910509F49CC0843B910509F490
:101500009BC0853B910509F49AC0863B910509F47F
:1015100099C0873B910509F498C0883B910509F46F
:1015200097C0893B910509F496C08D3B910509F45C
:1015300095C08E3B910509F494C08A3B910509F44E
:1015400093C0C0E0D4E492C00E9471093DC0CE01B6
:101550009927D3FF03C0EC01D86C88C0EC01D06C94
:1015600085C0DF70D06A82C0DC2FCC27C16FD06A03
:101570007DC040E2249F90011124C1E0D0E002C070
:10158000CC0FDD1F8A95E2F7C22BD32BDA686EC031
:10159000D82FCC27C46FD06A69C08C2F0E94B70B9C
:1015A0008F71C82FD0E0DC2FCC27D0625FC02C2FEA
:1015B0002F70206E30E0306A84E0D695C7958A950A
:1015C000E1F7CF70C9019C2BEC0150C0DD27D0663C
:1015D0004DC0C0E0D0E04AC0C1E8D0E447C0C3E895
:1015E000D0E444C0C2EED4E441C0C9EED4E43EC06D
:1015F000CAEED4E43BC0C5EBD4E438C0C6EBD4E4B7
:1016000035C0C3EBD4E432C0C4EBD4E42FC0C7EB85
:10161000D4E42CC0CCECD4E429C0CDECD4E426C076
:10162000C3E8D5E423C0CAE8D5E420C0C2E9D5E4C4
:101630001DC0C4E9D5E41AC0C1E2D6E417C0C3E2B4
:10164000D6E414C0C4E2D6E411C0C5E2D6E40EC0AC
:10165000C6E2D6E40BC0C7E2D6E408C0CFE6D4E4C5
:1016600005C0C0E7D4E402C0CAE2D6E4CE01DF91EF
:10167000CF9108958238910549F1B0F481339105F5
:1016800009F458C048F48932910509F44EC08A32F1
:10169000910509F454C008958533910509F440C0BB
:1016A0008933910599F00895833E910529F138F425
:1016B000803E910591F0823E9105A1F00895863E0D
:1016C0009105F9F0873E910531F108952091AB0322
:1016D00020FD3AC021FD38C008958091AB0380FD04
:1016E00035C032C08091AB0382FF32C08091AB0322
:1016F00084FD30C083EE39C08091AB0382FD28C0E9
:10170000F5CF8091AB0383FF27C08091AB0384FDAD
:1017100021C087EE2AC08091AB0383FD1DC0F5CFA9
:101720008091AB0385FD1AC01BC08091AB0385FD82
:1017300017C014C08091AB0386FD14C015C0809102
:10174000AB0386FD11C00EC080EE0FC089E30DC053
:1017500082EE0BC080E009C086EE07C089E205C0BA
:1017600085E303C08AE201C081E390E0089590918F
:10177000AB0392FF0DC0282F2871283019F4877F02
:10178000846006C0282F2471243011F48B7F886078
:1017900093FF0DC0282F2871283119F4877E8461AA
:1017A00006C0282F2471243111F48B7E886194FDAA
:1017B000877E0895CF93DF93813020E8920768F009
:1017C000FB012281222349F0EC010E94070CCE018B
:1017D0009F770E944F0C0E943C0C81E0DF91CF91DB
:1017E00008958CE090E00E94B23190E0A0E0B0E07B
:1017F0008093600390936103A0936203B0936303AB
:101800000895609160038CE090E00C94C6310E94D2
:10181000522080934D020E946520809160038130A8
:1018200071F048F08230D9F08430F9F486EE0E94ED
:10183000351788E118C082EE0E94941516C080EE1C
:101840000E94941581EE0E94941588E10E9435173C
:1018500081EE0E94CD1680EE0E94CD1606C082EE6B
:101860000E94941587E50E9435178FE39CE9019744
:10187000F1F700C00000089580916003813021F0ED
:1018800038F0823029F007C08CE20E94351703C07F
:1018900082EE0E94CD1680914D020C9462200F932F
:1018A0001F93CF93DF938C01CCE0D0E0C8010C2EC6
:1018B00002C0969587950A94E2F78F700E949E0663
:1018C0000E9435172497CC3F8FEFD80779F7DF9127
:1018D000CF911F910F9108950F931F93CF93DF9393
:1018E000EC018B01FB018281882319F1C23EFCE5EA
:1018F000DF07C1F050F4C03EECE5DE0781F0C13EE9
:10190000FCE5DF07B1F481E010C0C33E8CE5D807E9
:1019100059F0C43EECE5DE0761F484E006C01092A5
:10192000600305C082E001C083E0809360030E94F1
:10193000010CB801CE01DF91CF911F910F910C9452
:10194000DA0BEF92FF920F931F93CF93DF93E9018E
:10195000662309F44BC0242F30E0EFEFF0E0E61BE4
:10196000F109B901E69F9001E79F300DF69F300D18
:101970001124232F8B01031B11095CE3E52EF12CAD
:10198000B7010E947731FB01BC01069FC001079F90
:10199000900D169F900D1124B7010E947731E2300F
:1019A000F105B1F040F4309779F0319711F5832FBC
:1019B000242F461B21C0E430F105A1F068F03597D3
:1019C000C1F4842F861B18C0832F262F230F14C029
:1019D000862F830FE42F03C0E42FE61B842F432FB1
:1019E0002E2F0AC0842F462F430F06C0842F242F8A
:1019F00003C080E020E040E0E42FF0E0EE54FC4F34
:101A00004491E22FF0E0EE54FC4F9491E82FF0E087
:101A1000EE54FC4FE49149839883EA83DF91CF91A0
:101A20001F910F91FF90EF90089588E090E00C9443
:101A3000BA31CF92DF92EF92FF926B017C010E944C
:101A4000150D6C157D058E059F0551F0B701A6019A
:101A500088E090E0FF90EF90DF90CF900C94D83129
:101A6000FF90EF90DF90CF900895E4E6F3E083E0FD
:101A70008083109265038FEF828383831482608159
:101A80007181828193810C94190D8091640380FF90
:101A900003C086958F73089580E008958091680350
:101AA00090E001968430910514F083E090E08093FB
:101AB000680360916403709165038091660390915F
:101AC00067030C94190D8091680390E0019797FFCC
:101AD00002C080E090E08430910514F083E090E053
:101AE000809368036091640370916503809166033D
:101AF000909167030C94190D8091640380FF06C0D8
:101B00006FE070E089E693E00C94A41380E090E02D
:101B1000FC01E759FC4F11821082128204968C332B
:101B20009105B1F7EDCF9091640390FF0FC020E0D5
:101B300030E0F901E759FC4F8183608342832C5FD9
:101B40003F4F2C333105A9F70C947C0D0895CF93AA
:101B5000DF9300D000D0CDB7DEB72091640320FF23
:101B60000AC09E012F5F3F4F0E94A10C4B816981EB
:101B70008A810E94930D0F900F900F900F90DF912C
:101B8000CF9108955F926F927F928F929F92AF92C2
:101B9000BF92CF92DF92EF92FF920F931F93CF935A
:101BA000DF9300D000D0CDB7DEB78C01E62EF42E47
:101BB000522E8091640380FF89C0982F9E779230C7
:101BC00061F49E012F5F3F4FC8010E94A10C4B8121
:101BD00069818A810E94930D59C0E82FE695EF73C1
:101BE0009EE39E0F9F73943018F4F09067034EC0ED
:101BF0009AE39E0F9F73993068F4881F8827881F87
:101C000090916503292F220F022F082B97FB112794
:101C100010F93CC087E28E0F8F738A30B8F5F0E080
:101C20007997E0FD02C021E001C02FEFEE7FE8557B
:101C3000FC4F859194916FE070E00E94773126030C
:101C40004001279F900C1124580188E9A81A8EEFB3
:101C5000B80A89E6C82E83E0D82E98E6692E772444
:101C60007394C501B3010E94773196014F2D6E2DFB
:101C70000E94A10CA80CB91C84E0C80ED11C85EAF6
:101C8000C81683E0D80669F70E947C0D8091640332
:101C900000FB87F980936403902F969580916503EC
:101CA0008078892B10FB87F980936503E0926603A7
:101CB000F0926703552051F06091640370916503C1
:101CC00080916603909167030E94190D0F900F9009
:101CD0000F900F90DF91CF911F910F91FF90EF9098
:101CE000DF90CF90BF90AF909F908F907F906F903C
:101CF0005F900895282FE4E6F3E09081991F9927DB
:101D0000991F30916503832F880F482F492B37FB8C
:101D1000552750F9CA010C9668E671E00E948B3194
:101D2000438162810C94C20D81E00C947A0E282FBD
:101D300090916403991F9927991F30916503832F10
:101D4000880F482F492B37FB552750F9CA014C30D3
:101D500051051CF4845A9E4F01C00C9768E671E04F
:101D60000E948B3140916703609166030C94C20D11
:101D700081E00C94970EE4E6F3E03081331F3327C3
:101D8000331F90916503592F550F97FB992790F9B1
:101D9000282F43816FEF852F832B0C94C20D81E098
:101DA0000C94BB0EE4E6F3E03081331F3327331F7E
:101DB00090916503592F550F97FB992790F9282F7C
:101DC000438160E0852F832B0C94C20D81E00C943D
:101DD000D20E40916703242F30E0243F310514F4E4
:101DE000445F01C04FEF30916403331F3327331F2B
:101DF00090916503592F550F97FB992790F9282F3C
:101E000060916603852F832B0C94C20D81E00C94A6
:101E1000E90E40916703242F30E02C30310514F097
:101E20004C5001C040E030916403331F3327331F0F
:101E300090916503592F550F97FB992790F9282FFB
:101E400060916603852F832B0C94C20D81E00C9466
:101E5000090F20E00C94C20DCF939091640390FF82
:101E600040C09178811102C0926007C0853210F0A5
:101E7000986403C08F73880F982B90936403662334
:101E800051F06091640370916503809166039091B5
:101E900067030E94190DC09164036C2F66956F73E0
:101EA00070E04BE050E084E091E00E94A531892B86
:101EB00019F010926B0203C081E080936B02CC1F7B
:101EC000CC27CC1F90916503892F880F97FB99270A
:101ED00090F940916703609166038C2BCF910C942D
:101EE000290FCF910895682F9091640396959F7361
:101EF00081E0890F853208F081E00C942C0F81E09D
:101F00000C94730F682F9091640396959F738FEFD5
:101F1000890F09F484E20C942C0F81E00C94820F59
:101F200061E00C942C0FE4E6F3E080818160808313
:101F300086958F730C94900F60E00C942C0F809119
:101F40002E03816080932E030E949120811104C092
:101F50000E94FF200E94350D0E94150D60936403BE
:101F60007093650380936603909367036E7761F4C3
:101F70000E94350D0E94150D6093640370936503F4
:101F8000809366039093670381E080936B02809156
:101F9000640380FF04C086958F730C949C0F089592
:101FA000E4E6F3E080818E7F8083608171818281AD
:101FB00093810E94190D10926B022FEF80E792E03F
:101FC000215080409040E1F700C000000C947C0D4F
:101FD0008091640380FD0C94D00F0C94930FCF93E9
:101FE000C82F8091690290916A020E941F22EC2FF3
:101FF000F0E0EC55FC4FE491F0E08E179F0708F4F9
:1020000043C00E94132290936A02809369026091F8
:10201000680270E080E090E00E94782F20E030E0DD
:102020004FE753E40E949B2E2BED3FE049E450E440
:102030000E94A1300E940E310E94152F2BE43AE33A
:102040004EE25FE30E942E2E20EF3BEF48ED52E47C
:102050000E94A1300E94472F462F80916403881F61
:102060008827881F90916503292F220F97FB9927B6
:1020700090F960916603822B0E94A70D80916802FF
:1020800090E0019680936802CF910895CF93C82F76
:1020900080916602909167020E941F22EC2FF0E06F
:1020A000EF55FC4FE491F0E08E179F07E8F00E9497
:1020B00013229093670280936602409167036091B8
:1020C000660380916402909165020E94A70D809141
:1020D000640290916502019668E671E00E94773192
:1020E0009093650280936402CF910895CF92DF921E
:1020F000FF920F931F93CF93DF93F82E809162028C
:10210000909163020E941F22EF2DE695F0E0E256C7
:10211000FC4FE491F0E08E179F07E8F10E94132234
:10212000909363028093620209E613E0C0E0D0E07E
:1021300088E6C82EDD24D3948091600290916102DC
:102140008C0F9D1FB6010E94773198014091670363
:10215000609166030E94A10C68960C5F1F4FC83601
:1021600081E0D80749F70E947C0D209160023091F0
:102170006102F0FE0AC0C9010196BE010E947731DA
:10218000909361028093600206C021503109309320
:10219000610220936002DF91CF911F910F91FF9018
:1021A000DF90CF900895AF92BF92CF92DF92EF92DF
:1021B000FF920F931F93CF93DF93C82F80FF02C02E
:1021C0001FEF01C011E080915E0290915F020E94BA
:1021D0001F22C695EC2FF0E0E556FC4FE491F0E0AD
:1021E0008E179F0708F466C00E94132290935F0227
:1021F00080935E0229E6C22E23E0D22E3BE6E32E38
:1022000033E0F32EC0E0D0E0F70131971082F60101
:102210001082F701108294E0A92EB12C00E0809189
:102220005D02800F87FD815F082E000C990BC81797
:10223000D907E9F4809167038A9DA0018B9D500D19
:102240001124559547955595479580916403881FAE
:102250008827881F90916503592F550F97FB992761
:1022600090F9960160916603852B0E94A10C010FE5
:10227000F1E0AF1AB10899F6219684E0C80ED11C9E
:10228000E4E0EE0EF11CCF30D10509F0BDCF0E9485
:102290007C0D80915D02113031F4811102C08EE01D
:1022A00007C0815005C090E00196BE010E948B31AD
:1022B00080935D02DF91CF911F910F91FF90EF907E
:1022C000DF90CF90BF90AF9008950F931F93CF935F
:1022D000DF93C82F80915B0290915C020E941F22C5
:1022E000EC2FF0E0E856FC4FE491F0E08E179F07EA
:1022F00008F464C00E94132290935C0280935B02F6
:1023000080E090E0FC01E759FC4F118210821282BC
:1023100004968C339105B1F7C0E0D0E00FE010E0F7
:10232000CE01B8010E948B31FC0180915A02082E27
:10233000000C990BEE0FFF1FEE0FFF1FC817D907F8
:10234000FCF080910301082E000C990B8C179D075F
:10235000BCF09F0127593C4F80916403881F882758
:10236000881F90916503592F550F97FB992790F976
:102370004091670360916603852B0E94A10C05C004
:10238000E759FC4F1182108212822196CF30D1057D
:1023900039F60E947C0D8091020190915A02980FAB
:1023A00090935A0220910301280F209303011216E3
:1023B00014F49E301CF0819580930201DF91CF913F
:1023C0001F910F910895EF92FF920F931F93CF9358
:1023D000DF9380915802909159020E941F22883EFB
:1023E0009340D0F10E941322909359028093580297
:1023F000C0915602D09157022196C170DD27D0932B
:102400005702C093560289E6E82E83E0F82E10E0CA
:1024100008E7812F8695FE01E80FF11DCF0181703D
:10242000992797014091670360916603FC010E9F15
:10243000C0010F9F900D11240E94A10C1F5FF4E0BA
:10244000EF0EF11C1F3029F7DF91CF911F910F91F3
:10245000FF90EF900C947C0DDF91CF911F910F9125
:10246000FF90EF900895CF93DF9300D000D0CDB7C9
:10247000DEB780915402909155020E941F22E6E936
:10248000F3E02591349182179307C0F180915302B4
:1024900081110CC09E012F5F3F4F4FEF6FEF80E027
:1024A00090E00E94A10C8A81809353020E94132223
:1024B000909355028093540280915202813051F0E2
:1024C00028F0823061F4409153020AC08091530297
:1024D00040E007C06091530240E080E003C040E06C
:1024E00080E060E00E94930D8091520290E001969E
:1024F00063E070E00E948B31809352020F900F9046
:102500000F900F90DF91CF9108950F931F93CF936A
:10251000DF9380915002909151020E941F22843FCC
:10252000914008F448C00E94132290935102809376
:102530005002C9E6D3E000E010E020914E02309155
:102540004F028091640390916503073011051CF4DC
:10255000232B79F002C0232B61F4881F8827881F62
:10256000592F550F97FB992790F99E0140916703CA
:102570000AC0881F8827881F592F550F97FB992756
:1025800090F99E0140E060916603852B0E94A10CAA
:102590000F5F1F4F24960F30110579F60E947C0DB6
:1025A00080914E0290914F020196817099279093ED
:1025B0004F0280934E02DF91CF911F910F910895AA
:1025C00080916B028823D9F190916403892F8695BD
:1025D0008F732EE3280F2F73243018F482500C943D
:1025E000EF0F2AE3280F2F73233018F486500C9432
:1025F000461027E3280F2F73263018F489500C94C7
:10260000761021E3280F2F73263018F48F500C9486
:10261000D3102BE2280F2F73233018F485510C941C
:102620006511892F8E77803311F40C94E311863471
:1026300011F40C943312883411F40C94851208951B
:10264000882319F05198599A02C0519A5998509874
:10265000589A95E09A95F1F70000509A589895E0AD
:102660009A95F1F70000882311F0519A599885E066
:102670008A95F1F7000008958BB18C7F8BB9509843
:10268000589A5198599A85E08A95F1F70000089573
:102690008AB18C7F8AB985E08A95F1F70000519A5A
:1026A000599885E08A95F1F70000509A589885E08E
:1026B0008A95F1F7000008955098589A85E08A9518
:1026C000F1F700005198599A85E08A95F1F70000DA
:1026D0000895CF93DF93D82FC8E08D2F80780E9484
:1026E0002013DD0FC150C9F780E00E94201385E060
:1026F0008A95F1F7000085E08A95F1F7000080E007
:10270000DF91CF9108952BB1342F309523233BB126
:10271000432B3FB7F894FC01680F791FE617F707C2
:1027200089F0819198E04BB9000000C087FF2BB978
:10273000880F000000C000C000C02BB900C09A95EF
:1027400091F7ECCF3FBF0895AF92BF92CF92DF9247
:10275000EF92FF920F931F93CF93DF938C01EB01C6
:10276000CFB6D090BC00F8948091BC008B7F809352
:10277000BC000E943C130E94481384E80E94691325
:10278000CC0FDD1FCC0FDD1F78015801AC0EBD1E34
:10279000EA14FB0431F0F70181917F010E94691373
:1027A000F7CF0E945C13CFBED092BC00579A40E88E
:1027B000BE01C801DF91CF911F910F91FF90EF9063
:1027C000DF90CF90BF90AF900C94831390937102E1
:1027D000809370020895E0917002F0917102309739
:1027E00021F00190F081E02D099480E00895E091BE
:1027F0007002F0917102309799F02091200122230C
:1028000059F02091AB0327FF07C0DC012C911196F2
:102810002C93119725E02C930280F381E02D0994ED
:102820000895E0917002F0917102309739F022E042
:10283000DC012C930480F581E02D0994089520910A
:102840006E0230916F028217930771F090936F02BE
:1028500080936E02E0917002F0917102309721F046
:102860000680F781E02D0994089520916C02309143
:102870006D028217930771F090936D0280936C0242
:10288000E0917002F0917102309721F00084F1859F
:10289000E02D0994089585B7806885BF85B7806865
:1028A00085BF089508950E944B140C94521481E042
:1028B00008950E940A220E94AC030E94A1220C9457
:1028C0009F0FCF92DF92EF92FF920F931F93CF93C0
:1028D000DF93CDB7DEB72B970FB6F894DEBF0FBEF0
:1028E000CDBF0E947E040E945714811111C08FEF4A
:1028F00089838A831B820E9413228160782F9D83A3
:102900008C8349815A816B818D810E94451556C007
:1029100083E7C82E82E0D82E00E010E0E02E802F62
:102920000E94C604F60141916F01F42EF82631F49D
:102930000F5F1F4F0E30110589F7D9CF90912E03ED
:1029400091FF04C08B870E94CC048B8520E030E08F
:102950004F2D50E0922FBA01022E02C07595679557
:102960000A94E2F760FF24C02E83EF8221E030E07A
:10297000690102C0CC0CDD1C9A95E2F790E08C2135
:102980009D21892B09F420E028870E941322816071
:10299000782F9A8789874E815F8168858A850E9412
:1029A0004515F801ED58FD4F8081C826C08206C04C
:1029B0002F5F3F4F2630310569F6BACF0E9434248D
:1029C000109172020E94EB131817A1F00E94EB13F2
:1029D000809372022B960FB6F894DEBF0FBECDBF68
:1029E000DF91CF911F910F91FF90EF90DF90CF90EB
:1029F0000C94AF062B960FB6F894DEBF0FBECDBF7A
:102A0000DF91CF911F910F91FF90EF90DF90CF90CA
:102A10000895DC0111962C9111978C91682F70E02C
:102A200041E050E001C0440F8A95EAF712968C917C
:102A3000129730E0882329F0809191028823E9F0F1
:102A400006C0F901EF57FD4F90819423B1F086E065
:102A5000829FF001839FF00D1124E60FF71FEE0F08
:102A6000FF1FEF5DFE4F808191818D939C93F90153
:102A7000EF57FD4F8081482B06C0F901EF57FD4FFE
:102A800040958081482340830895CF93DF93CDB74D
:102A9000DEB72B970FB6F894DEBF0FBECDBF942FD5
:102AA0004F83252F588769877A878B874A855B856F
:102AB000452B21F02F3F09F59F3FF9F4DE011196D8
:102AC00086E0FD0111928A95E9F785E0FE013796CF
:102AD00001900D928A95E1F749815A816B817C8141
:102AE0008D819E810E94F41C2B960FB6F894DEBF58
:102AF0000FBECDBFDF91CF910895CE0107960E9402
:102B00000915DCCFFC01808191810E94C01F929544
:102B10009F70963041F48091910291E089278093D3
:102B20009102909390020895CF93DF931F92CDB7B7
:102B3000DEB7882309F42DC1682F8238C1F40E94C2
:102B4000EB1381FD26C169E380910F019091100183
:102B50000E9466210E941F202FEF81EE94E02150F9
:102B600080409040E1F700C0000069E319C083385D
:102B700011F50E94EB1380FD0CC163E580910F01FC
:102B8000909110010E9466210E941F202FEF81EE7C
:102B900094E0215080409040E1F700C0000063E5E0
:102BA00080910F01909110010E9471210F90DF918F
:102BB000CF910C941F208438C1F40E94EB1382FD46
:102BC000E8C067E480910F01909110010E94662196
:102BD0000E941F202FEF81EE94E021508040904012
:102BE000E1F700C0000067E4DBCF8CEF860F813A8D
:102BF00070F4862F69830E946A2669818111C9C099
:102C000080910F01909110010E946621CFCF80E248
:102C1000860F883048F4677081E001C0880F6A959C
:102C2000EAF70E945520C2CF8BE5860F833088F4E7
:102C3000653A29F0663A31F083E890E005C081E812
:102C400090E002C082E890E00F90DF91CF910C9469
:102C50001F1488E5860F873108F091C0683A09F49F
:102C600045C0693A09F445C06A3A09F445C06B3A6F
:102C700009F445C06C3A09F445C06B3B09F445C002
:102C80006C3B09F445C06D3A09F445C0603B09F45A
:102C900045C06E3A09F445C06F3A09F445C0613B3E
:102CA00009F445C0623B09F445C0633B09F445C0E3
:102CB000643B09F445C0653B09F445C0663B09F433
:102CC00045C0673B09F445C0683B09F445C0693B12
:102CD00009F445C06D3B09F445C06E3B09F445C09D
:102CE0006A3B09F445C080E090E044C082EE90E089
:102CF00041C089EE90E03EC08AEE90E03BC085EB9B
:102D000090E038C086EB90E035C083EB90E032C0B5
:102D100084EB90E02FC087EB90E02CC08CEC90E02F
:102D200029C08DEC90E026C083E891E023C08AE8BA
:102D300091E020C082E991E01DC084E991E01AC0D1
:102D400081E292E017C083E292E014C084E292E054
:102D500011C085E292E00EC086E292E00BC087E2ED
:102D600092E008C08FE690E005C080E790E002C0E6
:102D70008AE292E00F90DF91CF910C943514603F7E
:102D800040F0862F0E943C230F90DF91CF910C944E
:102D900029240F90DF91CF910895882309F464C00E
:102DA000823879F40E94EB1381FF5EC069E3809161
:102DB0000F01909110010E9466210E941F2069E37B
:102DC00010C08338B1F40E94EB1380FF4DC063E55F
:102DD00080910F01909110010E9466210E941F2096
:102DE00063E580910F01909110010E9471210C9474
:102DF0001F20843879F40E94EB1382FF35C067E40A
:102E000080910F01909110010E9466210E941F2065
:102E100067E4E7CF9CEF980F913A10F4682FE1CF69
:102E200090E2980F983050F4877091E001C0990FAC
:102E30008A95EAF7892F0E945B20D9CF9BE5980FEE
:102E4000933020F480E090E00C941F1498E5980FE4
:102E5000973120F480E090E00C943514803F20F00E
:102E60000E94A4230C9429240895CF93C82F0E9474
:102E700094158C2FCF910C94CD16882321F00E94AD
:102E800055200C941F200895882321F00E945B2078
:102E90000C941F2008958F929F92AF92BF92DF9261
:102EA000EF92FF920F931F93CF93DF937C01D62F66
:102EB000C72FFC01058102950F70128111110E942C
:102EC00075200E941820882379F0112369F080E290
:102ED0008D0F883048F082E00E9401200E94182067
:102EE00091E0D82ED92601C0D12CAC2EA2948FE02F
:102EF000A822B12CF501E159FF4F0C949F318C2F82
:102F0000807FCF70882311F0C295C07F112399F084
:102F1000CC2309F4C8C180E28D0F883010F0D111A4
:102F200004C08C2F0E94552003C08C2F0E94682063
:102F30000E941F20B8C18D2F0E94CD16CC2309F40A
:102F40002EC280E28D0F883010F0D11104C08C2F7A
:102F50000E945B2003C08C2F0E946E200E941F20C5
:102F60001EC28C2F807FCF70803211F0C295C07F3F
:102F7000DD2319F0D130C9F021C0112371F00023F5
:102F800041F0013031F40E948E208C2B0E94882069
:102F900006C20E948E208C2B3FC1002319F0013005
:102FA00009F4FDC10E948B2011C0112321F00230D1
:102FB00008F0F5C107C00111F2C108C0112321F0CA
:102FC000011171C18C2F28C101117EC18C2F2AC122
:102FD0008C2F86958695837090E0009719F0019765
:102FE00061F0DDC1112321F08D2F9C2F937002C061
:102FF00080E090E00E941F14E2C1112321F08D2F88
:103000009C2F937002C080E090E00E943514D7C1DD
:103010001123F9F0D53F51F0D63F71F0D43FA9F418
:103020008091A5039091A60381600BC08091A503B8
:103030009091A603826005C08091A5039091A6039C
:1030400084609093A6038093A5038D2F0E943C2358
:103050001EC0D53F51F0D63F71F0D43FA9F4809106
:10306000A5039091A6038E7F0BC08091A50390913C
:10307000A6038D7F05C08091A5039091A6038B7F49
:103080009093A6038093A5038D2F0E94A4230E94F2
:10309000292495C18C2F837009F050C011118BC168
:1030A0008D2F829586958770880F880F9D2F9F7032
:1030B000892E912CA12CB12C082E04C0880C991CAF
:1030C000AA1CBB1C0A94D2F7D4FF14C00FE010E076
:1030D00020E030E0B901A80104C0440F551F661F6D
:1030E000771F8A95D2F7CB01BA01609570958095CC
:1030F000909503C060E070E0CB01C695C695C370A3
:10310000D0E0C230D10561F0C330D10581F068292B
:1031100079298A299B29219771F00E94391E4BC178
:10312000682979298A299B290E944B1E44C10E9443
:10313000391EC501B4010E94271E3DC1112319F09B
:103140008C2F817001C08695882309F434C18D2F9E
:10315000829586958770880F880F9D2F9F70892E86
:10316000912CA12CB12C082E04C0880C991CAA1CEF
:10317000BB1C0A94D2F7D4FF14C00FE010E020E08B
:1031800030E0B901A80104C0440F551F661F771F26
:103190008A95D2F7CB01BA0160957095809590958C
:1031A00003C060E070E0CB01C695C695C3704C2F9C
:1031B00050E04230510569F04330510589F06829EB
:1031C00079298A299B294130510571F00E94FF1EFF
:1031D000F2C0682979298A299B290E94111FEBC016
:1031E0000E94FF1EC501B4010E94ED1EE4C08D2F98
:1031F00090E0FC01E05EF109E531F10508F04FC017
:10320000E158FF4F0C949F31DF708C2F8F71112389
:1032100031F00E94861E8D2F0E943D17C0C00E9473
:10322000A71E8D2F0E944417BAC0112339F0011137
:10323000B6C08C2F8F710E94CC1EB1C0023008F036
:10324000AEC0F7CF112339F08C2F8F710E94861EEC
:10325000A6C01123C9F38C2F8F710E94A71E9FC097
:10326000112329F08C2F8F710E94711E98C00E942B
:103270006C1E95C0112349F0CF718C2F0E94861EC1
:1032800063E08C2F0E94F81F8AC081E00E94012019
:10329000023008F484C082E00E94012080C0112323
:1032A00031F0002389F28D2F0E94941578C00023FD
:1032B00091F2D93349F45FEF67EE73E0515060400B
:1032C0007040E1F700C000008D2F0E94CD1667C04E
:1032D0004C2F4F706D2FC7010E945B090E94981DF3
:1032E0006EC0D23FB1F028F4D03F49F0D13FF9F0A1
:1032F00028C0D43FB9F058F0D53F71F022C0112357
:1033000009F447C09091910281E0892708C081E0CB
:103310001827109391023DC011113BC081E08093AA
:10332000910237C0111135C01092910232C01123A1
:1033300029F080919002882329F329C0002311F3FA
:1033400028C0809190020023C1F0882341F0909121
:10335000910281E0892780939102109290028D2F33
:10336000112319F00E94941514C00E94CD1686E016
:10337000F70111928A95E9F70CC0882351F01111D9
:1033800008C09091910281E0892780939102109268
:1033900090024C2F4F706D2FC7010E945E09F8E01C
:1033A000AF16B10441F05CF04AE0A41AB10852E053
:1033B000A516B10420F40E94EB130E94AF06DD2095
:1033C000E1F00E94F41F80FD18C0F70112820E94F4
:1033D000EE1F0E94861EC7010E94091A0E94EE1F5E
:1033E000DF91CF911F910F91FF90EF90DF90BF90F1
:1033F000AF909F908F900C94A71EDF91CF911F915B
:103400000F91FF90EF90DF90BF90AF909F908F90C3
:1034100008950F931F93CF93DF93EC0188819981D7
:103420002B813C81232BB9F09F3F11F48F3F99F002
:10343000CE010E94C106882371F0688179818A815A
:103440000E94CB1F8C010E94231F0E94241EB801E2
:10345000CE010E944B17DF91CF911F910F910895DC
:103460000E9475200E9485200E941F200E94CF2468
:103470000E94292480E090E00E941F1480E090E0E8
:103480000C94351480910F01909110010E947C21C1
:103490000C94301A0E9465200C94421AE92FE29590
:1034A000EF70F0E03297EE30F105B0F4EC56FF4FDC
:1034B0000C949F31803F91F018F4803E68F40EC068
:1034C000843F51F40BC0803E48F0813F29F406C090
:1034D00093FB882780F9089580E0089581E008959E
:1034E0000E94C01F0E944E1A0895CF93DF9300D010
:1034F00000D01F92CDB7DEB70F900F900F900F90B6
:103500000F90DF91CF910895CF93DF9300D000D03B
:1035100000D0CDB7DEB726960FB6F894DEBF0FBE4B
:10352000CDBFDF91CF9108951F93CF93DF93C091CB
:10353000920216E080919302C81799F0D0E01C9F88
:10354000F0011D9FF00D1124EC56FD4F408151817B
:1035500062817381848195810E94841A2196C7704B
:10356000E9CFDF91CF911F9108954091C40250910E
:10357000C5026091C6027091C7028091C802909105
:10358000C9020C94841A8091C90282958F7009F047
:1035900054C08091C602882309F44FC080919202E2
:1035A000A09193026091C4027091C5024091C7023C
:1035B0005091C802B6E08A1709F43FC090E0411567
:1035C0005105C1F17F3F11F46F3FA1F1B89FF001A8
:1035D000B99FF00D1124EC56FD4F218172132AC0C2
:1035E0002081621327C02281211124C023813481CC
:1035F0002417350710F421503109241B350B283CC2
:103600003105C0F42091C9022F7020612093C902B6
:1036100026E0289FF001299FF00D1124E756FD4F69
:1036200080818F708061808384EC92E00E94091A0F
:103630000C94941A01968770BECF0895CF92DF92B2
:10364000EF92FF920F931F93CF93DF93CDB7DEB727
:1036500062970FB6F894DEBF0FBECDBF8C0185E038
:10366000F801DE011D9601900D928A95E1F7D801CF
:103670004C9111965C91119712966C91129713963A
:10368000CD90DC9014973091C4027091C502809166
:10369000C7029091C802009709F46BC17F3F19F4EB
:1036A0003F3F09F466C1E090C602EE2009F4C0C0B5
:1036B0002091C902C816D90628F0F601E81BF90BBB
:1036C000CF0104C0809590958C0D9D1DFF24F3942F
:1036D000883C910578F0F12C207F09F0C6C07C2D44
:1036E000D98AC88A89890E94751A84EC92E00E945E
:1036F000091AB1C0822F807F09F046C0751314C02B
:10370000341312C0611110C02F7020612093C902C0
:103710000E94B51A84EC92E00E94091A8091C902B5
:10372000D80115968C932EC0CD2819F15F3F11F466
:103730004F3FF9F0F62E61111CC08091920220914A
:10374000930236E0821709F45AC090E0389FF001E6
:10375000399FF00D1124EC56FD4F7181571306C0AF
:103760007081471303C07281711103C00196877085
:10377000E9CFF62E662309F427C18091C902816042
:103780008093C902F12C20C1751308C0341306C000
:10379000611104C08091C902D801C3C04D875E8702
:1037A0008D859E856A8B0E94701A6A898823E1F153
:1037B0006623D1F12091C902822F82958F7090E00B
:1037C000029774F08091C4029091C50298878F830C
:1037D0001986DB86CA862C87CE0107960E94091AB5
:1037E00086E0F801A4ECB2E001900D928A95E1F731
:1037F0000E94C31A0E94B51AFF24F394E5C04D87B6
:103800005E878D859E850E94C01F292F22952F706F
:1038100030E0223031050CF0CBC09F7009F0C5C0FC
:10382000805E883008F4D0C0C8010E94091AE4CF35
:10383000C816D90608F453C0F601E81BF90BCF01EE
:10384000883C910508F450C0F12C7C2DD98AC88A97
:1038500089890E94751AE4ECF2E086E0DF011D928E
:103860008A95E9F70E94B51AAFC0751314C03413D6
:1038700012C0611110C08091C902F8018583C8018E
:103880000E94091A86E0E4ECF2E0DF011D928A95BD
:10389000E9F7FE2C99C04D875E878D859E856A8BE2
:1038A0000E94701A6A89882309F4BECF662309F43E
:1038B000BBCF2091C902822F82958F7090E0029732
:1038C0000CF48ECF8091C4029091C5029A838983B3
:1038D0001B82DD82CC822E83CE0101967FCF809524
:1038E00090958C0D9D1DACCFF62E662309F49CCFD0
:1038F00075132EC034132CC02091C90220FD1FC0A7
:10390000822F82958F70D9F0D80115962C93159738
:103910008F3049F08F5F982F9295907F822F8F7014
:10392000892B15968C93C8010E94091A86E0F8012C
:10393000A4ECB2E001900D928A95E1F793CF86E076
:10394000F801A4ECB2E001900D928A95E1F73CC039
:103950004D875E878D859E850E94701A811140CFAC
:103960008091C90281608093C902C8010E94091A2E
:103970002BC0662309F458CF4D875E878D859E85C1
:103980000E94701AF82E882309F44ECF86E0F801C1
:10399000A4ECB2E001900D928A95E1F784EC92E0FC
:1039A0000E9482150E94C31A5DCF811139CF0CC0CD
:1039B000243031050CF038CF9F7009F431CFF80175
:1039C0009581907F09F02CCF8F2D62960FB6F894D9
:1039D000DEBF0FBECDBFDF91CF911F910F91FF9042
:1039E000EF90DF90CF9008951F93CF93DF93CDB7E3
:1039F000DEB72C970FB6F894DEBF0FBECDBF4F8356
:103A0000588769877A878B879C87CE0107960E94A3
:103A10001E1B882369F08F8198852A853B85232B7F
:103A2000F1F19F3F09F063C08F3F09F060C037C0DC
:103A300086E0FE013796DE01119601900D928A957F
:103A4000E1F76F817885EA85FB85309741F17F3F0B
:103A500011F46F3F21F12091930230E0C9010196EA
:103A6000877099274091920250E08417950709F4D6
:103A700047C069837A83FD83EC8396E0929FD001EF
:103A8000939FB00D1124AC56BD4FFE0131960190AD
:103A90000D929A95E1F7809393020E94941A16E092
:103AA00080919202909193028917C1F1189FC001F1
:103AB00011248C569D4F0E941E1B882379F1E091A2
:103AC00092021E9FF0011124EC56FD4F408151815E
:103AD00062817381848195810E94841A809192020F
:103AE00090E001968770992780939202D9CF4F81F9
:103AF000588569857A858B859C850E94841ACFCFED
:103B00000E944A1A1092930210929202E4ECF2E0A0
:103B100086E0DF011D928A95E9F7C1CF2C960FB69A
:103B2000F894DEBF0FBECDBFDF91CF911F910895F6
:103B3000EF92FF920F931F93CF93DF938C01892B0A
:103B400009F46CC0F12CEE24E394E8012196F8010D
:103B50008491843740F4843008F051C0813081F082
:103B6000823019F15BC0853709F444C0A8F19CE7A5
:103B7000980F903708F052C08F770E94CD1641C041
:103B80000E5F1F4FFE01C49180E28C0F883048F415
:103B9000C7708E2D01C0880FCA95EAF70E94782061
:103BA00014C08C2F0E9494152DC00E5F1F4FFE0174
:103BB000C49180E28C0F883058F4C7708E2D01C0FC
:103BC000880FCA95EAF70E947E200E941F201AC023
:103BD0008C2F0E94CD1616C00E5F1F4FFE01C491A0
:103BE000CC2381F08FE99FE00197F1F700C000003E
:103BF000C150F6CF0E5F1F4FFE01F49003C00E942C
:103C000094158E018F2D882309F49FCFEFE9FFE0F3
:103C10003197F1F700C000008150F5CFDF91CF91CF
:103C20001F910F91FF90EF90089508950C94151E29
:103C30000E94161E6093050370930603809307038A
:103C4000909308030C94301A08950C94181E0F9347
:103C50001F930091050310910603209107033091F3
:103C60000803602B712B822B932B1F910F910C94C7
:103C7000181E0F931F9300910503109106032091C6
:103C800007033091080360237123822393231F913C
:103C90000F910C94181E0F931F9300910503109120
:103CA00006032091070330910803602771278227BC
:103CB00093271F910F910C94181E08950C945D1E6C
:103CC0000E945E1E609301037093020380930303BE
:103CD000909304030C94301A60E070E0CB010C94D4
:103CE000601E0F931F9341E050E060E070E08A0196
:103CF0009B0104C0000F111F221F331F8A95D2F7AA
:103D0000C901B8011F910F910C94601E0F931F936E
:103D100041E050E060E070E004C0440F551F661FB2
:103D2000771F8A95D2F78091010390910203A091A9
:103D30000303B09104038A019B01082B192B2A2B42
:103D40003B2BC901B8011F910F910C94601E0F937A
:103D50001F9341E050E060E070E004C0440F551F45
:103D6000661F771F8A95D2F740955095609570959C
:103D70008091010390910203A0910303B091040389
:103D80008A019B01082319232A233B23C901B80177
:103D90001F910F910C94601E0F931F9341E050E010
:103DA00060E070E004C0440F551F661F771F8A95BE
:103DB000D2F78091010390910203A0910303B09187
:103DC00004038A019B01082719272A273B27C901D9
:103DD000B8011F910F910C94601E0F931F930091D7
:103DE0000103109102032091030330910403602B1F
:103DF000712B822B932B1F910F910C94601E0F93AC
:103E00001F9300910103109102032091030330914D
:103E1000040360237123822393231F910F910C9439
:103E2000601E0F931F9300910103109102032091D4
:103E300003033091040360277127822793271F9182
:103E40000F910C94601E0895292F220F920F990F45
:103E5000890FA82FA695A695A695877051E001C059
:103E6000550F8A95EAF785E0A89FD001112420E03C
:103E700030E070E0F901EA0FFB1FE653FD4F40818F
:103E8000CB01022E02C0969587950A94E2F78170C5
:103E90009927819584278523842780832F5F3F4F2F
:103EA0002530310539F70895292F220F920F990FE8
:103EB000890F682F669566956695982F977085E0AF
:103EC000689FB001112440E050E080E0FA01E60F65
:103ED000F71FE653FD4F208130E0092E02C03695D2
:103EE00027950A94E2F721703327042E01C0220F90
:103EF0000A94EAF7822B4F5F5F4F4530510531F747
:103F00000895CF92DF92EF92FF920F931F93CF937A
:103F1000DF938C01C0900503D0900603E090070367
:103F2000F09008038091010390910203A091030394
:103F3000B0910403C82AD92AEA2AFB2ACFE1D0E0AB
:103F4000D701C6010C2E04C0B695A7959795879505
:103F50000A94D2F780FF06C0B8018C2F0E9479091D
:103F6000019721F4219760F780E001C08C2FDF9149
:103F7000CF911F910F91FF90EF90DF90CF90089518
:103F8000CF93DF93EC010E94811FBE010E9479094B
:103F9000DF91CF9108951F93CF93DF93EB01909121
:103FA0008F02992321F0CB010E94C01F13C08823E8
:103FB00049F0CB010E94811F182F682FCE010E946B
:103FC000241F04C0CB010E94541F182FBE01812F53
:103FD0000E947909DF91CF911F9108958091090383
:103FE0008595859585950895809109038770089535
:103FF00098E0899F90011124262B209309030C94AB
:10400000861E209109038095822380930903982FAF
:10401000977069F430E0482F082E000C550B2417D8
:10402000350729F08595859585950C94A71E0895EB
:1040300090910903977081E009F480E00895E09180
:104040000F01F091100180912D038083E0910F0109
:10405000F0911001908180912C03892B8083E09155
:104060000F01F0911001908180912B03892B8083A7
:1040700080910A03882381F0E0910F01F0911001F3
:104080009081892B808380910F01909110010E9473
:104090000121811110920A0380910F01909110016A
:1040A0000C94F71380912D03089590912D03892B83
:1040B00080932D030895809590912D0389238093FB
:1040C0002D03089580932D03089510922D030895D4
:1040D00090912C03892B80932C03089580959091C7
:1040E0002C03892380932C03089510922C030895A8
:1040F00090912B03892B80932B03089580959091A9
:104100002B03892380932B03089510922B0308958A
:1041100080930A03089510920A03089580910A0378
:10412000089580E090E00E94C03121E08D3E9E4FD6
:1041300009F020E0822F089582E090E00C94B231E3
:1041400083E090E00C94B23184E090E00C94B231C2
:10415000682F84E090E00C94C631AB01BC018FE085
:1041600090E00C94D831AB01BC0183E190E00C9459
:10417000D83160E070E0CB010C94B32060E070E0D7
:10418000CB010E94AD200C94B9206DEE7EEF80E053
:1041900090E00E94E43160E082E090E00E94C6314D
:1041A00060E083E090E00E94C63110920503109217
:1041B0000603109207031092080360E084E090E089
:1041C0000E94C63160E085E090E00E94C63160E068
:1041D00086E090E00E94C6316FEF87E090E00E9499
:1041E000C63140E050E0BA0188E090E00E94D8314A
:1041F00060E08DE090E00E94C6310C94BE200C94EB
:10420000C520FC01329680912001882331F08091F5
:10421000AB0387FF02C09EE101C096E080E09150B1
:1042200028F021912223D9F38F5FF9CF08959C01C3
:10423000FC0132969FEF80E04191461789F09F3F45
:1042400019F4411101C0982F8F5F8630A9F79F3F65
:1042500039F0F901E90FF11D97FDFA956283089590
:104260000895FC01329608962081261301C0108221
:104270003196E817F907C1F70895262F2695269558
:1042800026952E3168F4FC01E20FF11D677021E0E4
:1042900030E001C0220F6A95EAF78281282B228341
:1042A0000895262F2695269526952E3170F4FC012B
:1042B000E20FF11D677021E030E001C0220F6A9526
:1042C000EAF72095828128232283089520912001F6
:1042D000222329F02091AB0327FD0C943D210C945F
:1042E000172120912001222329F02091AB0327FDE3
:1042F0000C9451210C94312120912001FC01329623
:10430000222331F08091AB0387FF02C08EE101C010
:1043100086E0DF011D928A95E9F7089508950C94CF
:104320008E210E948F218091B103843049F1109237
:104330002F0320E488E190E00FB6F894A8958093CD
:1043400060000FBE2093600080E00E94AF060E94D4
:104350008F2183B7817F846083BF83B7816083BFF0
:104360007894889583B78E7F83BF0FB6F894A8950D
:1043700080916000886180936000109260000FBEA1
:1043800008950895CF930E94D5030E947E040E9451
:10439000C121C0E08C2F0E94C604811104C0CF5FF0
:1043A000CE30C1F701C081E0CF91089508950C94FB
:1043B000D6210E944A1A0E94EB130E94AF060C9469
:1043C000D7211F920F920FB60F9211248F939F93B4
:1043D000AF93BF9380912F03811113C08091A703E6
:1043E0009091A803A091A903B091AA034196A11DA1
:1043F000B11D8093A7039093A803A093A903B09342
:10440000AA03BF91AF919F918F910F900FBE0F9014
:104410001F90189582E084BD93E095BD9AEF97BDFB
:1044200080936E0008952FB7F8948091A703909120
:10443000A803A091A903B091AA032FBF0895CF921A
:10444000DF92EF92FF920F931F932FB7F894409152
:10445000A7035091A8036091A9037091AA032FBFED
:104460006A017B01EE24FF248C0120E030E0C016BD
:10447000D106E206F30610F4415051099A01281BB7
:10448000390BC9011F910F91FF90EF90DF90CF90F2
:10449000089578941F920F920FB60F9211248F9364
:1044A0009F93AF93BF938091A7039091A803A0918E
:1044B000A903B091AA030196A11DB11D8093A70382
:1044C0009093A803A093A903B093AA03BF91AF91BF
:1044D0009F918F910F900FBE0F901F901895F89499
:1044E00081E08093E00080E28093D800E9ECF0E086
:1044F00010828FE19EE40197F1F700C000001DBA21
:10450000109268001CBC10BE1FBA10927A00109264
:104510006E0010926F001092710010927200108263
:10452000ECEBF0E0108214B817B81AB81DB810BA46
:10453000108215B818B81BB81EB811BA0C94003FF9
:1045400008950E949120811102C00E94FF200E94C4
:104550009C2080932E030E94A42090E09093AC03B3
:104560008093AB030E94A020682F70E080E090E071
:104570000C94251E8091330380FF0BC060911401C1
:1045800085E0689FB00111247595679575956795CD
:104590002BC081FF09C06091140185E0689FB001C4
:1045A00011247595679520C082FF07C060911401A2
:1045B00085E0689FB001112417C0909134039923BE
:1045C000D1F060911301961788F72091140185E0CE
:1045D000289F90011124929FA001939F500D1124B8
:1045E00070E0CA010E948B316038710540F461159A
:1045F000710539F002C065E070E0862F08958FE7FD
:10460000089581E008958091330380FF08C0609190
:10461000120170E0759567957595679521C081FFCA
:1046200006C06091120170E07595679519C082FF10
:1046300004C06091120170E010C09091340399237E
:10464000C1F0609111019617A0F780911201899F26
:10465000C001112470E00E948B316038710528F48C
:104660006115710521F0862F08958FE7089581E087
:10467000089561E070E0F4CF803F21F40E94BA22F7
:10468000819504C0813F29F40E94BA2280933803A7
:104690000895823F21F40E94BA22819504C0833F8D
:1046A00029F40E94BA22809337030895893F19F4B0
:1046B0000E94032305C08A3F31F40E9403238195A1
:1046C0008093390308958B3F21F40E940323819541
:1046D00004C08C3F29F40E94032380933A03089579
:1046E000843F21F480913603816017C0853F21F417
:1046F00080913603826011C0863F21F48091360399
:1047000084600BC0873F21F480913603886005C028
:10471000883F31F480913603806180933603089599
:104720008D3F21F48091330381600BC08E3F21F4D3
:1047300080913303826005C08F3F29F48091330359
:104740008460809333030895803F39F48091380367
:1047500087FF6CC01092380369C0813F29F48091B3
:1047600038031816BCF362C090913703823F29F4D6
:1047700097FF5CC01092370359C0833F19F4191694
:10478000CCF354C0893F41F48091390318160CF0E2
:104790004DC0109239034AC08A3F29F480913903F1
:1047A00087FF44C0F6CF8B3F39F480913A0387FFEF
:1047B0003DC010923A033AC08C3F29F480913A03ED
:1047C0001816BCF333C0843F21F4809136038E7FEA
:1047D00017C0853F21F4809136038D7F11C0863F3D
:1047E00021F4809136038B7F0BC0873F21F48091A9
:1047F0003603877F05C0883F31F4809136038F7E72
:104800008093360313C08D3F21F4809133038E7F54
:104810000BC08E3F21F4809133038D7F05C08F3F05
:1048200029F4809133038B7F809333038091370386
:1048300081110EC08091380381110AC08091390323
:10484000811106C080913A03811102C01092340395
:10485000089585E393E00E9411140E94132290931F
:1048600031038093300308951F93CF93DF9380919A
:104870003003909131030E941F22AC0190913403C8
:10488000992321F02091150130E006C020913203D8
:104890008AE0289F900111244217530708F47BC037
:1048A00080913703C0913803D091390310913A03B6
:1048B000811107C0C1116BC0D11169C0111167C04E
:1048C0006AC09F3F19F09F5F90933403181624F439
:1048D0000E94BA22809337038091370387FF05C077
:1048E0000E94BA228195809337031C1624F40E94FB
:1048F000BA22809338038091380387FF05C00E9455
:10490000BA22819580933803309137033323E1F045
:10491000209138032223C1F045EB3403C001112458
:10492000892F990F990B009709F481E08093370341
:1049300035EB2303C0011124892F990F990B0097A0
:1049400009F481E0809338031D1624F40E940323A8
:10495000809339038091390387FF05C00E940323A8
:10496000819580933903111624F40E9403238093C8
:104970003A0380913A0387FF05C00E940323819583
:1049800080933A03DF91CF911F910C9429249F3F8C
:1049900009F099CFA1CFDF91CF911F910895E5E361
:1049A000F3E086E0DF011D928A95E9F71092340367
:1049B000109233030895833081F128F4813059F047
:1049C0008230D1F00895853009F449C0B8F18630BD
:1049D00009F456C0089580913203262F30E0280F45
:1049E000311D2F3F310524F4680F60933203089581
:1049F0008FEF80933203089580911501262F30E0C8
:104A0000280F311D2F3F310524F4680F60931501E5
:104A100008958FEF80931501089580911401262F3A
:104A200030E0280F311D2F3F310524F4680F6093CB
:104A3000140108958FEF809314010895809113015C
:104A4000262F30E0280F311D2F3F310524F4680F49
:104A50006093130108958FEF80931301089580915F
:104A60001201262F30E0280F311D2F3F310524F48D
:104A7000680F6093120108958FEF809312010895DB
:104A800080911101262F30E0280F311D2F3F310575
:104A900024F4680F6093110108958FEF8093110142
:104AA0000895833011F128F4813049F0823091F07B
:104AB0000895853081F120F18630C1F1089580910B
:104AC0003203681720F4861B8093320308951092F6
:104AD0003203089580911501681720F4861B809396
:104AE0001501089510921501089580911401681719
:104AF00020F4861B809314010895109214010895E8
:104B000080911301681720F4861B80931301089588
:104B100010921301089580911201681720F4861BEA
:104B2000809312010895109212010895809111014D
:104B3000681720F4861B80931101089510921101CB
:104B400008950F931F93873208F04DC08E3108F0FF
:104B500093C0803109F47DC008F5873009F46BC03B
:104B600068F4863009F0A3C080912E03817F8E7F88
:104B700080932E0381E080933C039AC08B3009F42C
:104B80008FC08E3009F093C080912E0382FB2227C4
:104B900020F991E0922790FB82F964C0863109F4F4
:104BA0007FC088F4813109F082C00E944A1A809146
:104BB000AB0387FB222720F991E0922790FB87F92E
:104BC0008093AB036DC0893109F46AC08B3109F061
:104BD0006EC080912E0381FB222720F991E092275D
:104BE00090FB81F93FC0883309F45AC050F48932F0
:104BF00009F458C0853309F455C0873209F452C00E
:104C000056C0833409F44EC028F48A3308F44FC0E8
:104C1000895333C0883409F04AC00E944A1A0FEF02
:104C200013ED20E3015010402040E1F700C00000E8
:104C30000E946F2235C080912E03982F909591701D
:104C400090FB80F980932E0391112AC0897F877F82
:104C500010C080912E0383FB222720F991E0922738
:104C600090FB83F980932E039923D1F080912E033A
:104C7000816080932E0314C08D5141E050E060E0CC
:104C800070E08A019B0104C0000F111F221F331F17
:104C90008A95D2F7C901B8010E94251E0E944A1ABE
:104CA00081E006C061E070E080E090E0F5CF80E058
:104CB0001F910F91089580E0089580E008958E512E
:104CC0008A3030F4E82FF0E0E753FE4F80810895FA
:104CD00080E00895CF93C82F80913C03813071F01C
:104CE00018F08230E1F184C00E945220813151F0ED
:104CF0000E945220823209F07DC004C00E945220DE
:104D0000813149F48C2F0E945B26811109C08C2FC0
:104D10000E94A12522C00E945220823221F4F2CFAB
:104D200081E090E01AC08C2F0E945D26811114C092
:104D3000C43179F048F4CB3079F0C03109F05EC06D
:104D400082E080933C0308C0C93219F0C83321F0D7
:104D500055C010923C0352C081E0817051C0C932ED
:104D600079F108F5C43161F1A0F4C73009F044C00D
:104D70001092320384E180931501C09314018CE3F7
:104D80008093130188E08093120188E280931101DF
:104D900033C082EE8C0F863078F58C2F0E945F2610
:104DA00080933B0329C0CE34E9F020F4CB3421F5C5
:104DB0006AE013C0C13579F0C235F1F461E00DC08D
:104DC00080913B03882319F010923B0315C081E0CA
:104DD00080933C0315C061E006C080913B030E94B4
:104DE000DB240AC06AE080913B030E94512504C085
:104DF00010923C0380E004C081E002C080E0ADCFAF
:104E0000CF91089580915D0308950F931F93CF93E1
:104E1000DF9300D01F92CDB7DEB78C010E947529B9
:104E2000823011F0843021F584E089831B830A836A
:104E300082E08093E9008FEF9091E800815095FD2A
:104E400006C095ED9A95F1F700008111F5CF80919C
:104E5000E80085FF0DC040E050E063E070E0CE0167
:104E600001960E9492298091E8008E778093E80055
:104E70000F900F900F90DF91CF911F910F91089598
:104E8000CF93DF9300D01F92CDB7DEB72091B1034F
:104E9000243031F523E02983805891099B838A834C
:104EA00082E08093E9008FEF9091E800815095FDBA
:104EB00006C095ED9A95F1F700008111F5CF80912C
:104EC000E80085FF0DC040E050E063E070E0CE01F7
:104ED00001960E9492298091E8008E778093E800E5
:104EE0000F900F900F90DF91CF910895CF93DF93A4
:104EF000EC010E947529823011F08430F9F482E0CF
:104F00008093E9009FEF8091E800915085FD06C0F5
:104F100085ED8A95F1F700009111F5CF8091E800B9
:104F200085FF0CC040E050E066E070E0CE010E94DA
:104F300092298091E8008E778093E800DF91CF91ED
:104F40000895CF93DF93EC010E947529823011F010
:104F50008430D9F580912001882339F08091AB030A
:104F600087FF03C060E282E002C068E081E08093D6
:104F7000E9008FEF9091E800815095FD06C095ED16
:104F80009A95F1F700008111F5CF8091E80085FF37
:104F90001CC080912001811105C040E050E068E014
:104FA00070E003C070E040E050E0CE010E94922922
:104FB0008091E8008E778093E80080E2FE01ADE307
:104FC000B3E001900D928A95E1F7DF91CF910895BA
:104FD0008091B003811109C00E94272B0E94842B6D
:104FE0008091E20084608093E20008951092B00303
:104FF0000895089508950C94D92142E061EC81E070
:105000000E94A12A42E261EC82E00C94A12A8091E4
:10501000B303833009F460C030F4813071F0823022
:1050200009F499C008958A3009F485C08B3009F4D9
:105030006BC0893009F0A7C020C08091B203813ACB
:1050400009F0A1C08091E800877F8093E8008091FB
:10505000B6039091B703892B21F460E28DE393E0CE
:1050600003C060E080E090E070E00E94DD29809164
:10507000E8008B778093E80008958091B203813235
:1050800009F081C08091B6039091B703029708F0B0
:105090007AC08091E800877F8093E8008091E800E3
:1050A00082FD05C08091B1038111F8CF6CC02091C1
:1050B000F3008091F20090E0922B029729F4809106
:1050C000F1008B7F813021F48091F10080935D03AA
:1050D0008091E8008B7753C08091B203813A09F048
:1050E00052C08091B6039091B703892B09F04BC051
:1050F0008091E800877F8093E8008091E80080FF3E
:10510000FCCF8091200136C08091B2038132D9F565
:105110008091B6039091B703892BA9F58091E8009F
:10512000877F8093E8000E94D62A8091B403809301
:1051300020010C944A1A8091B203813221F58091AA
:10514000E800877F8093E8000E94D62A8091B5030B
:1051500080935E0308958091B203813AA1F4809117
:10516000E800877F8093E8008091E80080FFFCCF13
:1051700080915E038093F1008091E8008E778093A8
:10518000E8000C94D62A089584B7877F84BF0FB6B1
:10519000F894A895809160008861809360001092D7
:1051A00060000FBE80E880936100109261000E9451
:1051B00053140E94272B0E94842B8091E20084606C
:1051C0008093E20078940E94132E0E94591486E185
:1051D00091E00E94E6138091B103853069F40E944A
:1051E00091218091AF038823B1F30E94C2218823CB
:1051F00091F30E947C29EFCF0E9461140E94E0127B
:10520000EACF0C940329292F332723303105C9F025
:1052100064F42130310581F02230310509F04CC0B1
:105220008BE390E02CEE34E04BC02132310521F1CC
:105230002232310589F140C082E190E027E235E079
:105240003FC099278130910571F02CF4892BA1F58D
:10525000E8EEF4E00DC08230910541F0039761F56E
:10526000E2EBF4E005C0E0EDF4E002C0E8EBF4E0CE
:10527000849190E09F0124C06115710541F0613077
:105280007105D1F489E090E027E135E019C089E0AB
:1052900090E02EEF34E014C06115710541F06130EB
:1052A000710551F480EC90E029E335E009C080E419
:1052B00090E029EF35E004C080E090E020E030E0AD
:1052C000FA013183208308950895CF93C82F0E9457
:1052D0006429C0935F03CF9108958091B103843016
:1052E00011F081E0089582E0089580915F038111BB
:1052F00002C00C946D29089580E189BD82E189BDC9
:1053000009B400FEFDCF8091D8008F7D8093D80036
:105310008091E00082608093E0008091E00081FD58
:10532000FCCF0895CF92DF92EF92FF920F931F93DD
:10533000CF93DF93EC018B016A010E94F52A811162
:1053400033C0C114D10439F0F60180819181081B6A
:10535000190BC80FD91FE12CF12C0115110519F1FA
:105360008091E80085FD16C08091E8008E778093DB
:10537000E800C114D10449F0F60180819181E80E62
:10538000F91EF182E08285E00FC00E94F52A882391
:1053900021F30AC089918093F10001501109FFEFB8
:1053A000EF1AFF0ADACF80E0DF91CF911F910F91C2
:1053B000FF90EF90DF90CF9008952091B803309147
:1053C000B9032617370748F06115710539F42091A4
:1053D000E8002E772093E80001C0B90140E0611594
:1053E0007105A9F12091B103222309F443C02530AE
:1053F00009F442C02091E80023FD40C02091E8005C
:1054000022FD32C02091E80020FFE9CF4091F30057
:105410002091F20030E0342BFC01CF0161157105C1
:1054200059F02830310540F481918093F1006150AA
:1054300071092F5F3F4FF1CF41E02830310509F06E
:1054400040E02091E8002E772093E800C8CF41117A
:10545000C9CF0AC08091B103882361F0853061F023
:105460008091E80083FD0AC08091E80082FFF2CFBE
:1054700080E0089582E0089583E0089581E0089532
:105480002091B8033091B9032617370748F061150A
:10549000710539F42091E8002E772093E80001C0CF
:1054A000B901FC0120E06115710591F18091B10312
:1054B000882309F440C0853009F43FC08091E8009A
:1054C00083FD3DC08091E80082FD2FC08091E800FF
:1054D00080FFE9CF2091F3008091F20090E0922BC1
:1054E0006115710559F08830910540F4249120939D
:1054F000F1003196615071090196F2CF21E00897D1
:1055000009F020E08091E8008E778093E800CBCF0F
:105510002111CCCF0AC08091B103882361F085307E
:1055200061F08091E80083FD0AC08091E80082FF6D
:10553000F2CF80E0089582E0089583E0089581E04D
:105540000895982F973058F59093E900981739F0FF
:105550007091EC002091ED005091F00003C0242FD9
:10556000762F50E021FF19C03091EB003E7F309341
:10557000EB003091ED003D7F3093ED003091EB007A
:1055800031603093EB007093EC002093ED0050936A
:10559000F0002091EE0027FF07C09F5FD3CF8F70F0
:1055A0008093E90081E0089580E008958091B2033E
:1055B00087FF11C08091E80082FD05C08091B10392
:1055C0008111F8CF11C08091E8008B770BC08091DA
:1055D000B103882349F08091E80080FFF8CF8091E3
:1055E000E8008E778093E80008952091E4003091E0
:1055F000E50095E64091EC00842F817040FF22C0C9
:105600008091E80080FD1CC08091B103882391F057
:10561000853091F08091EB0085FD10C04091E40051
:105620005091E5004217530729F39A01915011F761
:1056300084E0089582E0089583E0089581E008956C
:1056400080E008954091E80042FFDECF08950E9477
:10565000952B0E949D2BE0EEF0E08081816080839D
:10566000E8EDF0E080818F77808319BCA7EDB0E092
:105670008C918E7F8C9380818F7E80831092B0037B
:1056800008950F931F93CF93DF930E94952B0E9451
:105690009D2BC8EDD0E088818F77888388818068D2
:1056A000888388818F7D888319BC1092B103109202
:1056B000AD031092AF031092AE0300EE10E0F801BC
:1056C00080818B7F808388818160888342E060E075
:1056D00080E00E94A12AE1EEF0E080818E7F80834D
:1056E000E2EEF0E080818160808380818860808349
:1056F000F80180818E7F8083888180618883DF913B
:10570000CF911F910F910895E8EDF0E080818F7E99
:105710008083E7EDF0E080818160808384E082BF58
:1057200081E08093B0030C94412BE8EDF0E08081A0
:105730008E7F80831092E20008951092DA0010921A
:10574000E10008951F920F920FB60F9211242F932C
:105750003F934F935F936F937F938F939F93AF93F9
:10576000BF93EF93FF938091E10082FF0BC0809184
:10577000E20082FF07C08091E1008B7F8093E1000F
:105780000E94122E8091DA0080FF1FC08091D80005
:1057900080FF1BC08091DA008E7F8093DA008091B9
:1057A000D90080FF0DC080E189BD82E189BD09B4C7
:1057B00000FEFDCF81E08093B1030E94E82705C081
:1057C00019BC1092B1030E94F6278091E10080FF7E
:1057D00019C08091E20080FF15C08091E2008E7FA9
:1057E0008093E2008091E20080618093E2008091EA
:1057F000D80080628093D80019BC85E08093B10303
:105800000E94FA278091E10084FF30C08091E2007D
:1058100084FF2CC080E189BD82E189BD09B400FE0E
:10582000FDCF8091D8008F7D8093D8008091E100DA
:105830008F7E8093E1008091E2008F7E8093E20072
:105840008091E20081608093E2008091AD03882323
:1058500011F084E007C08091E30087FD02C081E081
:1058600001C083E08093B1030E94FB278091E10097
:1058700083FF29C08091E20083FF25C08091E10071
:10588000877F8093E10082E08093B1031092AD03A3
:105890008091E1008E7F8093E1008091E2008E7F15
:1058A0008093E2008091E20080618093E20042E018
:1058B00060E080E00E94A12A8091F00088608093DF
:1058C000F0000E94F927FF91EF91BF91AF919F9156
:1058D0008F917F916F915F914F913F912F910F9099
:1058E0000FBE0F901F9018951F920F920FB60F9238
:1058F00011242F933F934F935F936F937F938F93D5
:105900009F93AF93BF93CF93DF93EF93FF93C09198
:10591000E900CF708091EC00D82FD17080FDD0E8E5
:105920001092E9008091F000877F8093F0007894D6
:105930000E94B82C1092E9008091F000886080935A
:10594000F000CD2BCF70C093E900FF91EF91DF9174
:10595000CF91BF91AF919F918F917F916F915F9107
:105960004F913F912F910F900FBE0F901F90189560
:105970001F93CF93DF93CDB7DEB7AA970FB6F894F6
:10598000DEBF0FBECDBFE2EBF3E088E08E0F90915B
:10599000F10091938E13FBCF0E9407288091E800BD
:1059A00083FF28C18091B2039091B303492F50E047
:1059B0004A30510508F01EC1FA01EE55FF4F0C9414
:1059C0009F31803821F0823809F014C108C08091DD
:1059D000AE039091AF03992389F082600FC080914C
:1059E000B6038F70873008F005C18093E90080917D
:1059F000EB0085FB882780F91092E9009091E80080
:105A0000977F9093E8008093F1001092F100D0C04E
:105A1000282F2D7F09F0EEC0882319F0823061F025
:105A2000E9C08091B403813009F0E4C0933009F0FB
:105A300080E08093AF032EC08091B40381112AC00F
:105A40008091B6038F702FEF280F263008F0D2C058
:105A50008093E9002091EB0020FF1CC0933021F4DB
:105A60008091EB00806214C09091EB009061909364
:105A7000EB0021E030E0A90102C0440F551F8A95D8
:105A8000E2F74093EA001092EA008091EB00886010
:105A90008093EB001092E9008091E800877F80936B
:105AA000E8000E94D62AA6C08111A4C01091B403B8
:105AB0001F778091E3008078812B8093E3008091B1
:105AC000E800877F8093E8000E94D62A8091E80052
:105AD00080FFFCCF8091E30080688093E300111188
